{
	"_format": "hh-sol-artifact-1",
	"contractName": "HD721",
	"sourceName": "contracts/HD721.sol",
	"abi": [
		{
			"inputs": [],
			"stateMutability": "nonpayable",
			"type": "constructor"
		},
		{
			"anonymous": false,
			"inputs": [
				{
					"indexed": true,
					"internalType": "address",
					"name": "owner",
					"type": "address"
				},
				{
					"indexed": true,
					"internalType": "address",
					"name": "approved",
					"type": "address"
				},
				{
					"indexed": true,
					"internalType": "uint256",
					"name": "tokenId",
					"type": "uint256"
				}
			],
			"name": "Approval",
			"type": "event"
		},
		{
			"anonymous": false,
			"inputs": [
				{
					"indexed": true,
					"internalType": "address",
					"name": "owner",
					"type": "address"
				},
				{
					"indexed": true,
					"internalType": "address",
					"name": "operator",
					"type": "address"
				},
				{
					"indexed": false,
					"internalType": "bool",
					"name": "approved",
					"type": "bool"
				}
			],
			"name": "ApprovalForAll",
			"type": "event"
		},
		{
			"anonymous": false,
			"inputs": [
				{
					"indexed": true,
					"internalType": "address",
					"name": "_buyer",
					"type": "address"
				},
				{
					"indexed": false,
					"internalType": "uint256",
					"name": "_id",
					"type": "uint256"
				},
				{
					"indexed": true,
					"internalType": "string",
					"name": "_uri",
					"type": "string"
				}
			],
			"name": "Message",
			"type": "event"
		},
		{
			"anonymous": false,
			"inputs": [
				{
					"indexed": true,
					"internalType": "address",
					"name": "previousOwner",
					"type": "address"
				},
				{
					"indexed": true,
					"internalType": "address",
					"name": "newOwner",
					"type": "address"
				}
			],
			"name": "OwnershipTransferred",
			"type": "event"
		},
		{
			"anonymous": false,
			"inputs": [
				{
					"indexed": false,
					"internalType": "address",
					"name": "account",
					"type": "address"
				}
			],
			"name": "Paused",
			"type": "event"
		},
		{
			"anonymous": false,
			"inputs": [
				{
					"indexed": true,
					"internalType": "address",
					"name": "from",
					"type": "address"
				},
				{
					"indexed": true,
					"internalType": "address",
					"name": "to",
					"type": "address"
				},
				{
					"indexed": true,
					"internalType": "uint256",
					"name": "tokenId",
					"type": "uint256"
				}
			],
			"name": "Transfer",
			"type": "event"
		},
		{
			"anonymous": false,
			"inputs": [
				{
					"indexed": false,
					"internalType": "address",
					"name": "account",
					"type": "address"
				}
			],
			"name": "Unpaused",
			"type": "event"
		},
		{
			"inputs": [
				{
					"internalType": "address",
					"name": "to",
					"type": "address"
				},
				{
					"internalType": "uint256",
					"name": "tokenId",
					"type": "uint256"
				}
			],
			"name": "approve",
			"outputs": [],
			"stateMutability": "nonpayable",
			"type": "function"
		},
		{
			"inputs": [
				{
					"internalType": "address",
					"name": "owner",
					"type": "address"
				}
			],
			"name": "balanceOf",
			"outputs": [
				{
					"internalType": "uint256",
					"name": "",
					"type": "uint256"
				}
			],
			"stateMutability": "view",
			"type": "function"
		},
		{
			"inputs": [
				{
					"internalType": "uint256",
					"name": "tokenId",
					"type": "uint256"
				}
			],
			"name": "burn",
			"outputs": [],
			"stateMutability": "nonpayable",
			"type": "function"
		},
		{
			"inputs": [
				{
					"internalType": "uint256",
					"name": "tokenId",
					"type": "uint256"
				}
			],
			"name": "getApproved",
			"outputs": [
				{
					"internalType": "address",
					"name": "",
					"type": "address"
				}
			],
			"stateMutability": "view",
			"type": "function"
		},
		{
			"inputs": [
				{
					"internalType": "address",
					"name": "owner",
					"type": "address"
				},
				{
					"internalType": "address",
					"name": "operator",
					"type": "address"
				}
			],
			"name": "isApprovedForAll",
			"outputs": [
				{
					"internalType": "bool",
					"name": "",
					"type": "bool"
				}
			],
			"stateMutability": "view",
			"type": "function"
		},
		{
			"inputs": [],
			"name": "name",
			"outputs": [
				{
					"internalType": "string",
					"name": "",
					"type": "string"
				}
			],
			"stateMutability": "view",
			"type": "function"
		},
		{
			"inputs": [],
			"name": "owner",
			"outputs": [
				{
					"internalType": "address",
					"name": "",
					"type": "address"
				}
			],
			"stateMutability": "view",
			"type": "function"
		},
		{
			"inputs": [
				{
					"internalType": "uint256",
					"name": "tokenId",
					"type": "uint256"
				}
			],
			"name": "ownerOf",
			"outputs": [
				{
					"internalType": "address",
					"name": "",
					"type": "address"
				}
			],
			"stateMutability": "view",
			"type": "function"
		},
		{
			"inputs": [],
			"name": "pause",
			"outputs": [],
			"stateMutability": "nonpayable",
			"type": "function"
		},
		{
			"inputs": [],
			"name": "paused",
			"outputs": [
				{
					"internalType": "bool",
					"name": "",
					"type": "bool"
				}
			],
			"stateMutability": "view",
			"type": "function"
		},
		{
			"inputs": [],
			"name": "renounceOwnership",
			"outputs": [],
			"stateMutability": "nonpayable",
			"type": "function"
		},
		{
			"inputs": [
				{
					"internalType": "address",
					"name": "to",
					"type": "address"
				},
				{
					"internalType": "string",
					"name": "uri",
					"type": "string"
				}
			],
			"name": "safeMint",
			"outputs": [],
			"stateMutability": "nonpayable",
			"type": "function"
		},
		{
			"inputs": [
				{
					"internalType": "address",
					"name": "from",
					"type": "address"
				},
				{
					"internalType": "address",
					"name": "to",
					"type": "address"
				},
				{
					"internalType": "uint256",
					"name": "tokenId",
					"type": "uint256"
				}
			],
			"name": "safeTransferFrom",
			"outputs": [],
			"stateMutability": "nonpayable",
			"type": "function"
		},
		{
			"inputs": [
				{
					"internalType": "address",
					"name": "from",
					"type": "address"
				},
				{
					"internalType": "address",
					"name": "to",
					"type": "address"
				},
				{
					"internalType": "uint256",
					"name": "tokenId",
					"type": "uint256"
				},
				{
					"internalType": "bytes",
					"name": "_data",
					"type": "bytes"
				}
			],
			"name": "safeTransferFrom",
			"outputs": [],
			"stateMutability": "nonpayable",
			"type": "function"
		},
		{
			"inputs": [
				{
					"internalType": "address",
					"name": "operator",
					"type": "address"
				},
				{
					"internalType": "bool",
					"name": "approved",
					"type": "bool"
				}
			],
			"name": "setApprovalForAll",
			"outputs": [],
			"stateMutability": "nonpayable",
			"type": "function"
		},
		{
			"inputs": [
				{
					"internalType": "bytes4",
					"name": "interfaceId",
					"type": "bytes4"
				}
			],
			"name": "supportsInterface",
			"outputs": [
				{
					"internalType": "bool",
					"name": "",
					"type": "bool"
				}
			],
			"stateMutability": "view",
			"type": "function"
		},
		{
			"inputs": [],
			"name": "symbol",
			"outputs": [
				{
					"internalType": "string",
					"name": "",
					"type": "string"
				}
			],
			"stateMutability": "view",
			"type": "function"
		},
		{
			"inputs": [
				{
					"internalType": "uint256",
					"name": "tokenId",
					"type": "uint256"
				}
			],
			"name": "tokenURI",
			"outputs": [
				{
					"internalType": "string",
					"name": "",
					"type": "string"
				}
			],
			"stateMutability": "view",
			"type": "function"
		},
		{
			"inputs": [
				{
					"internalType": "address",
					"name": "from",
					"type": "address"
				},
				{
					"internalType": "address",
					"name": "to",
					"type": "address"
				},
				{
					"internalType": "uint256",
					"name": "tokenId",
					"type": "uint256"
				}
			],
			"name": "transferFrom",
			"outputs": [],
			"stateMutability": "nonpayable",
			"type": "function"
		},
		{
			"inputs": [
				{
					"internalType": "address",
					"name": "newOwner",
					"type": "address"
				}
			],
			"name": "transferOwnership",
			"outputs": [],
			"stateMutability": "nonpayable",
			"type": "function"
		},
		{
			"inputs": [],
			"name": "unpause",
			"outputs": [],
			"stateMutability": "nonpayable",
			"type": "function"
		}
	],
	"bytecode": "0x60806040523480156200001157600080fd5b50604080518082018252600c81526b1219595c98511a59da5d185b60a21b602080830191825283518085019094526002845261121160f21b9084015281519192916200006091600091620000ee565b50805162000076906001906020840190620000ee565b50506007805460ff19169055506200008e3362000094565b620001d1565b600780546001600160a01b03838116610100818102610100600160a81b031985161790945560405193909204169182907f8be0079c531659141344cd1fd0a4f28419497f9722a3daafe3b4186f6b6457e090600090a35050565b828054620000fc9062000194565b90600052602060002090601f0160209004810192826200012057600085556200016b565b82601f106200013b57805160ff19168380011785556200016b565b828001600101855582156200016b579182015b828111156200016b5782518255916020019190600101906200014e565b50620001799291506200017d565b5090565b5b808211156200017957600081556001016200017e565b600281046001821680620001a957607f821691505b60208210811415620001cb57634e487b7160e01b600052602260045260246000fd5b50919050565b611cc380620001e16000396000f3fe608060405234801561001057600080fd5b50600436106101075760003560e01c806301ffc9a71461010c57806306fdde0314610134578063081812fc14610149578063095ea7b31461016957806323b872dd1461017e5780633f4ba83a1461019157806342842e0e1461019957806342966c68146101ac5780635c975abb146101bf5780636352211e146101ca57806370a08231146101dd578063715018a6146101fe5780638456cb59146102065780638da5cb5b1461020e57806395d89b4114610216578063a22cb4651461021e578063b88d4fde14610231578063c87b56dd14610244578063d204c45e14610257578063e985e9c51461026a578063f2fde38b1461027d575b600080fd5b61011f61011a36600461190f565b610290565b60405190151581526020015b60405180910390f35b61013c6102e4565b60405161012b9190611a27565b61015c610157366004611947565b610376565b60405161012b91906119d6565b61017c6101773660046118e6565b610403565b005b61017c61018c36600461179b565b610514565b61017c610546565b61017c6101a736600461179b565b61057f565b61017c6101ba366004611947565b61059a565b60075460ff1661011f565b61015c6101d8366004611947565b610614565b6101f06101eb36600461174f565b61068b565b60405190815260200161012b565b61017c610712565b61017c61074b565b61015c610782565b61013c610796565b61017c61022c36600461184e565b6107a5565b61017c61023f3660046117d6565b6107b4565b61013c610252366004611947565b6107ec565b61017c610265366004611888565b6107f7565b61011f610278366004611769565b610884565b61017c61028b36600461174f565b6108b2565b60006001600160e01b031982166380ac58cd60e01b14806102c157506001600160e01b03198216635b5e139f60e01b145b806102dc57506301ffc9a760e01b6001600160e01b03198316145b90505b919050565b6060600080546102f390611bab565b80601f016020809104026020016040519081016040528092919081815260200182805461031f90611bab565b801561036c5780601f106103415761010080835404028352916020019161036c565b820191906000526020600020905b81548152906001019060200180831161034f57829003601f168201915b5050505050905090565b60006103818261094f565b6103e75760405162461bcd60e51b815260206004820152602c60248201527f4552433732313a20617070726f76656420717565727920666f72206e6f6e657860448201526b34b9ba32b73a103a37b5b2b760a11b60648201526084015b60405180910390fd5b506000908152600460205260409020546001600160a01b031690565b600061040e82610614565b9050806001600160a01b0316836001600160a01b0316141561047c5760405162461bcd60e51b815260206004820152602160248201527f4552433732313a20617070726f76616c20746f2063757272656e74206f776e656044820152603960f91b60648201526084016103de565b336001600160a01b038216148061049857506104988133610278565b6105055760405162461bcd60e51b815260206004820152603860248201527f4552433732313a20617070726f76652063616c6c6572206973206e6f74206f776044820152771b995c881b9bdc88185c1c1c9bdd995908199bdc88185b1b60421b60648201526084016103de565b61050f838361096c565b505050565b61051f335b826109da565b61053b5760405162461bcd60e51b81526004016103de90611aeb565b61050f838383610aa4565b3361054f610782565b6001600160a01b0316146105755760405162461bcd60e51b81526004016103de90611ab6565b61057d610c3d565b565b61050f838383604051806020016040528060008152506107b4565b6105a333610519565b6106085760405162461bcd60e51b815260206004820152603060248201527f4552433732314275726e61626c653a2063616c6c6572206973206e6f74206f7760448201526f1b995c881b9bdc88185c1c1c9bdd995960821b60648201526084016103de565b61061181610cca565b50565b6000818152600260205260408120546001600160a01b0316806102dc5760405162461bcd60e51b815260206004820152602960248201527f4552433732313a206f776e657220717565727920666f72206e6f6e657869737460448201526832b73a103a37b5b2b760b91b60648201526084016103de565b60006001600160a01b0382166106f65760405162461bcd60e51b815260206004820152602a60248201527f4552433732313a2062616c616e636520717565727920666f7220746865207a65604482015269726f206164647265737360b01b60648201526084016103de565b506001600160a01b031660009081526003602052604090205490565b3361071b610782565b6001600160a01b0316146107415760405162461bcd60e51b81526004016103de90611ab6565b61057d6000610cd3565b33610754610782565b6001600160a01b03161461077a5760405162461bcd60e51b81526004016103de90611ab6565b61057d610d2d565b60075461010090046001600160a01b031690565b6060600180546102f390611bab565b6107b0338383610d85565b5050565b6107be33836109da565b6107da5760405162461bcd60e51b81526004016103de90611aeb565b6107e684848484610e48565b50505050565b60606102dc82610e7b565b600061080260085490565b9050610812600880546001019055565b61081c8382610fde565b6108268183610ff8565b81604051610834919061198b565b6040518091039020836001600160a01b03167f4de1b91fd23ecb6111d0ffe4fad10173e98a13f37c9529dc84c77a686cc2cdb88360405161087791815260200190565b60405180910390a3505050565b6001600160a01b03918216600090815260056020908152604080832093909416825291909152205460ff1690565b336108bb610782565b6001600160a01b0316146108e15760405162461bcd60e51b81526004016103de90611ab6565b6001600160a01b0381166109465760405162461bcd60e51b815260206004820152602660248201527f4f776e61626c653a206e6577206f776e657220697320746865207a65726f206160448201526564647265737360d01b60648201526084016103de565b61061181610cd3565b6000908152600260205260409020546001600160a01b0316151590565b600081815260046020526040902080546001600160a01b0319166001600160a01b03841690811790915581906109a182610614565b6001600160a01b03167f8c5be1e5ebec7d5bd14f71427d1e84f3dd0314c0f7b2291e5b200ac8c7c3b92560405160405180910390a45050565b60006109e58261094f565b610a465760405162461bcd60e51b815260206004820152602c60248201527f4552433732313a206f70657261746f7220717565727920666f72206e6f6e657860448201526b34b9ba32b73a103a37b5b2b760a11b60648201526084016103de565b6000610a5183610614565b9050806001600160a01b0316846001600160a01b03161480610a8c5750836001600160a01b0316610a8184610376565b6001600160a01b0316145b80610a9c5750610a9c8185610884565b949350505050565b826001600160a01b0316610ab782610614565b6001600160a01b031614610b1f5760405162461bcd60e51b815260206004820152602960248201527f4552433732313a207472616e73666572206f6620746f6b656e2074686174206960448201526839903737ba1037bbb760b91b60648201526084016103de565b6001600160a01b038216610b815760405162461bcd60e51b8152602060048201526024808201527f4552433732313a207472616e7366657220746f20746865207a65726f206164646044820152637265737360e01b60648201526084016103de565b610b8c838383611083565b610b9760008261096c565b6001600160a01b0383166000908152600360205260408120805460019290610bc0908490611b68565b90915550506001600160a01b0382166000908152600360205260408120805460019290610bee908490611b3c565b909155505060008181526002602052604080822080546001600160a01b0319166001600160a01b038681169182179092559151849391871691600080516020611c6e83398151915291a4505050565b60075460ff16610c865760405162461bcd60e51b815260206004820152601460248201527314185d5cd8589b194e881b9bdd081c185d5cd95960621b60448201526064016103de565b6007805460ff191690557f5db9ee0a495bf2e6ff9c91a7834c1ba4fdd244a5e8aa4e537bd38aeae4b073aa335b604051610cc091906119d6565b60405180910390a1565b610611816110ab565b600780546001600160a01b03838116610100818102610100600160a81b031985161790945560405193909204169182907f8be0079c531659141344cd1fd0a4f28419497f9722a3daafe3b4186f6b6457e090600090a35050565b60075460ff1615610d505760405162461bcd60e51b81526004016103de90611a8c565b6007805460ff191660011790557f62e78cea01bee320cd4e420270b5ea74000d11b0c9f74754ebdbfc544b05a258610cb33390565b816001600160a01b0316836001600160a01b03161415610de35760405162461bcd60e51b815260206004820152601960248201527822a9219b99189d1030b8383937bb32903a379031b0b63632b960391b60448201526064016103de565b6001600160a01b03838116600081815260056020908152604080832094871680845294825291829020805460ff191686151590811790915591519182527f17307eab39ab6107e8899845ad3d59bd9653f200f220920489ca2b5937696c319101610877565b610e53848484610aa4565b610e5f848484846110eb565b6107e65760405162461bcd60e51b81526004016103de90611a3a565b6060610e868261094f565b610eec5760405162461bcd60e51b815260206004820152603160248201527f45524337323155524953746f726167653a2055524920717565727920666f72206044820152703737b732bc34b9ba32b73a103a37b5b2b760791b60648201526084016103de565b60008281526006602052604081208054610f0590611bab565b80601f0160208091040260200160405190810160405280929190818152602001828054610f3190611bab565b8015610f7e5780601f10610f5357610100808354040283529160200191610f7e565b820191906000526020600020905b815481529060010190602001808311610f6157829003601f168201915b505050505090506000610f8f6111f8565b9050805160001415610fa3575090506102df565b815115610fd5578082604051602001610fbd9291906119a7565b604051602081830303815290604052925050506102df565b610a9c84611219565b6107b08282604051806020016040528060008152506112e4565b6110018261094f565b6110645760405162461bcd60e51b815260206004820152602e60248201527f45524337323155524953746f726167653a2055524920736574206f66206e6f6e60448201526d32bc34b9ba32b73a103a37b5b2b760911b60648201526084016103de565b6000828152600660209081526040909120825161050f928401906115f2565b60075460ff16156110a65760405162461bcd60e51b81526004016103de90611a8c565b61050f565b6110b481611317565b600081815260066020526040902080546110cd90611bab565b15905061061157600081815260066020526040812061061191611676565b60006001600160a01b0384163b156111ed57604051630a85bd0160e11b81526001600160a01b0385169063150b7a029061112f9033908990889088906004016119ea565b602060405180830381600087803b15801561114957600080fd5b505af1925050508015611179575060408051601f3d908101601f191682019092526111769181019061192b565b60015b6111d3573d8080156111a7576040519150601f19603f3d011682016040523d82523d6000602084013e6111ac565b606091505b5080516111cb5760405162461bcd60e51b81526004016103de90611a3a565b805181602001fd5b6001600160e01b031916630a85bd0160e11b149050610a9c565b506001949350505050565b604080518082019091526007815266697066733a2f2f60c81b602082015290565b60606112248261094f565b6112885760405162461bcd60e51b815260206004820152602f60248201527f4552433732314d657461646174613a2055524920717565727920666f72206e6f60448201526e3732bc34b9ba32b73a103a37b5b2b760891b60648201526084016103de565b60006112926111f8565b905060008151116112b257604051806020016040528060008152506112dd565b806112bc846113ac565b6040516020016112cd9291906119a7565b6040516020818303038152906040525b9392505050565b6112ee83836114c6565b6112fb60008484846110eb565b61050f5760405162461bcd60e51b81526004016103de90611a3a565b600061132282610614565b905061133081600084611083565b61133b60008361096c565b6001600160a01b0381166000908152600360205260408120805460019290611364908490611b68565b909155505060008281526002602052604080822080546001600160a01b0319169055518391906001600160a01b03841690600080516020611c6e833981519152908390a45050565b6060816113d157506040805180820190915260018152600360fc1b60208201526102df565b8160005b81156113fb57806113e581611be6565b91506113f49050600a83611b54565b91506113d5565b6000816001600160401b0381111561142357634e487b7160e01b600052604160045260246000fd5b6040519080825280601f01601f19166020018201604052801561144d576020820181803683370190505b5090505b8415610a9c57611462600183611b68565b915061146f600a86611c01565b61147a906030611b3c565b60f81b81838151811061149d57634e487b7160e01b600052603260045260246000fd5b60200101906001600160f81b031916908160001a9053506114bf600a86611b54565b9450611451565b6001600160a01b03821661151c5760405162461bcd60e51b815260206004820181905260248201527f4552433732313a206d696e7420746f20746865207a65726f206164647265737360448201526064016103de565b6115258161094f565b156115715760405162461bcd60e51b815260206004820152601c60248201527b115490cdcc8c4e881d1bdad95b88185b1c9958591e481b5a5b9d195960221b60448201526064016103de565b61157d60008383611083565b6001600160a01b03821660009081526003602052604081208054600192906115a6908490611b3c565b909155505060008181526002602052604080822080546001600160a01b0319166001600160a01b0386169081179091559051839290600080516020611c6e833981519152908290a45050565b8280546115fe90611bab565b90600052602060002090601f0160209004810192826116205760008555611666565b82601f1061163957805160ff1916838001178555611666565b82800160010185558215611666579182015b8281111561166657825182559160200191906001019061164b565b506116729291506116ae565b5090565b50805461168290611bab565b6000825580601f106116945750610611565b601f01602090049060005260206000209081019061061191905b5b8082111561167257600081556001016116af565b60006001600160401b03808411156116dd576116dd611c41565b604051601f8501601f19908116603f0116810190828211818310171561170557611705611c41565b8160405280935085815286868601111561171e57600080fd5b858560208301376000602087830101525050509392505050565b80356001600160a01b03811681146102df57600080fd5b600060208284031215611760578081fd5b6112dd82611738565b6000806040838503121561177b578081fd5b61178483611738565b915061179260208401611738565b90509250929050565b6000806000606084860312156117af578081fd5b6117b884611738565b92506117c660208501611738565b9150604084013590509250925092565b600080600080608085870312156117eb578081fd5b6117f485611738565b935061180260208601611738565b92506040850135915060608501356001600160401b03811115611823578182fd5b8501601f81018713611833578182fd5b611842878235602084016116c3565b91505092959194509250565b60008060408385031215611860578182fd5b61186983611738565b91506020830135801515811461187d578182fd5b809150509250929050565b6000806040838503121561189a578182fd5b6118a383611738565b915060208301356001600160401b038111156118bd578182fd5b8301601f810185136118cd578182fd5b6118dc858235602084016116c3565b9150509250929050565b600080604083850312156118f8578182fd5b61190183611738565b946020939093013593505050565b600060208284031215611920578081fd5b81356112dd81611c57565b60006020828403121561193c578081fd5b81516112dd81611c57565b600060208284031215611958578081fd5b5035919050565b60008151808452611977816020860160208601611b7f565b601f01601f19169290920160200192915050565b6000825161199d818460208701611b7f565b9190910192915050565b600083516119b9818460208801611b7f565b8351908301906119cd818360208801611b7f565b01949350505050565b6001600160a01b0391909116815260200190565b6001600160a01b0385811682528416602082015260408101839052608060608201819052600090611a1d9083018461195f565b9695505050505050565b6000602082526112dd602083018461195f565b60208082526032908201527f4552433732313a207472616e7366657220746f206e6f6e20455243373231526560408201527131b2b4bb32b91034b6b83632b6b2b73a32b960711b606082015260800190565b60208082526010908201526f14185d5cd8589b194e881c185d5cd95960821b604082015260600190565b6020808252818101527f4f776e61626c653a2063616c6c6572206973206e6f7420746865206f776e6572604082015260600190565b60208082526031908201527f4552433732313a207472616e736665722063616c6c6572206973206e6f74206f6040820152701ddb995c881b9bdc88185c1c1c9bdd9959607a1b606082015260800190565b60008219821115611b4f57611b4f611c15565b500190565b600082611b6357611b63611c2b565b500490565b600082821015611b7a57611b7a611c15565b500390565b60005b83811015611b9a578181015183820152602001611b82565b838111156107e65750506000910152565b600281046001821680611bbf57607f821691505b60208210811415611be057634e487b7160e01b600052602260045260246000fd5b50919050565b6000600019821415611bfa57611bfa611c15565b5060010190565b600082611c1057611c10611c2b565b500690565b634e487b7160e01b600052601160045260246000fd5b634e487b7160e01b600052601260045260246000fd5b634e487b7160e01b600052604160045260246000fd5b6001600160e01b03198116811461061157600080fdfeddf252ad1be2c89b69c2b068fc378daa952ba7f163c4a11628f55a4df523b3efa26469706673582212200f03c25bf7a2307a58ec4004155f173b16c5aa9ba2b32b648c65e2d780d4940764736f6c63430008020033",
	"linkReferences": {},
	"deployedLinkReferences": {}
}