{
	"_format": "hh-sol-artifact-1",
	"contractName": "HD721",
	"sourceName": "contracts/HD721.sol",
	"abi": [
		{
			"inputs": [],
			"stateMutability": "nonpayable",
			"type": "constructor"
		},
		{
			"anonymous": false,
			"inputs": [
				{
					"indexed": true,
					"internalType": "address",
					"name": "owner",
					"type": "address"
				},
				{
					"indexed": true,
					"internalType": "address",
					"name": "approved",
					"type": "address"
				},
				{
					"indexed": true,
					"internalType": "uint256",
					"name": "tokenId",
					"type": "uint256"
				}
			],
			"name": "Approval",
			"type": "event"
		},
		{
			"anonymous": false,
			"inputs": [
				{
					"indexed": true,
					"internalType": "address",
					"name": "owner",
					"type": "address"
				},
				{
					"indexed": true,
					"internalType": "address",
					"name": "operator",
					"type": "address"
				},
				{
					"indexed": false,
					"internalType": "bool",
					"name": "approved",
					"type": "bool"
				}
			],
			"name": "ApprovalForAll",
			"type": "event"
		},
		{
			"anonymous": false,
			"inputs": [
				{
					"indexed": true,
					"internalType": "address",
					"name": "_buyer",
					"type": "address"
				},
				{
					"indexed": false,
					"internalType": "uint256",
					"name": "_id",
					"type": "uint256"
				},
				{
					"indexed": true,
					"internalType": "string",
					"name": "_uri",
					"type": "string"
				}
			],
			"name": "Message",
			"type": "event"
		},
		{
			"anonymous": false,
			"inputs": [
				{
					"indexed": true,
					"internalType": "address",
					"name": "previousOwner",
					"type": "address"
				},
				{
					"indexed": true,
					"internalType": "address",
					"name": "newOwner",
					"type": "address"
				}
			],
			"name": "OwnershipTransferred",
			"type": "event"
		},
		{
			"anonymous": false,
			"inputs": [
				{
					"indexed": false,
					"internalType": "address",
					"name": "account",
					"type": "address"
				}
			],
			"name": "Paused",
			"type": "event"
		},
		{
			"anonymous": false,
			"inputs": [
				{
					"indexed": true,
					"internalType": "address",
					"name": "from",
					"type": "address"
				},
				{
					"indexed": true,
					"internalType": "address",
					"name": "to",
					"type": "address"
				},
				{
					"indexed": true,
					"internalType": "uint256",
					"name": "tokenId",
					"type": "uint256"
				}
			],
			"name": "Transfer",
			"type": "event"
		},
		{
			"anonymous": false,
			"inputs": [
				{
					"indexed": false,
					"internalType": "address",
					"name": "account",
					"type": "address"
				}
			],
			"name": "Unpaused",
			"type": "event"
		},
		{
			"anonymous": false,
			"inputs": [
				{
					"indexed": true,
					"internalType": "address",
					"name": "_contractAddr",
					"type": "address"
				},
				{
					"indexed": true,
					"internalType": "address",
					"name": "_sender",
					"type": "address"
				},
				{
					"indexed": true,
					"internalType": "uint256",
					"name": "_id",
					"type": "uint256"
				}
			],
			"name": "remintEvent",
			"type": "event"
		},
		{
			"inputs": [
				{
					"internalType": "address",
					"name": "to",
					"type": "address"
				},
				{
					"internalType": "uint256",
					"name": "tokenId",
					"type": "uint256"
				}
			],
			"name": "approve",
			"outputs": [],
			"stateMutability": "nonpayable",
			"type": "function"
		},
		{
			"inputs": [
				{
					"internalType": "address",
					"name": "owner",
					"type": "address"
				}
			],
			"name": "balanceOf",
			"outputs": [
				{
					"internalType": "uint256",
					"name": "",
					"type": "uint256"
				}
			],
			"stateMutability": "view",
			"type": "function"
		},
		{
			"inputs": [
				{
					"internalType": "uint256",
					"name": "tokenId",
					"type": "uint256"
				}
			],
			"name": "burn",
			"outputs": [],
			"stateMutability": "nonpayable",
			"type": "function"
		},
		{
			"inputs": [],
			"name": "burnWallet",
			"outputs": [
				{
					"internalType": "address",
					"name": "",
					"type": "address"
				}
			],
			"stateMutability": "view",
			"type": "function"
		},
		{
			"inputs": [
				{
					"internalType": "uint256",
					"name": "tokenId",
					"type": "uint256"
				}
			],
			"name": "getApproved",
			"outputs": [
				{
					"internalType": "address",
					"name": "",
					"type": "address"
				}
			],
			"stateMutability": "view",
			"type": "function"
		},
		{
			"inputs": [
				{
					"internalType": "address",
					"name": "owner",
					"type": "address"
				},
				{
					"internalType": "address",
					"name": "operator",
					"type": "address"
				}
			],
			"name": "isApprovedForAll",
			"outputs": [
				{
					"internalType": "bool",
					"name": "",
					"type": "bool"
				}
			],
			"stateMutability": "view",
			"type": "function"
		},
		{
			"inputs": [],
			"name": "name",
			"outputs": [
				{
					"internalType": "string",
					"name": "",
					"type": "string"
				}
			],
			"stateMutability": "view",
			"type": "function"
		},
		{
			"inputs": [],
			"name": "owner",
			"outputs": [
				{
					"internalType": "address",
					"name": "",
					"type": "address"
				}
			],
			"stateMutability": "view",
			"type": "function"
		},
		{
			"inputs": [
				{
					"internalType": "uint256",
					"name": "tokenId",
					"type": "uint256"
				}
			],
			"name": "ownerOf",
			"outputs": [
				{
					"internalType": "address",
					"name": "",
					"type": "address"
				}
			],
			"stateMutability": "view",
			"type": "function"
		},
		{
			"inputs": [],
			"name": "pause",
			"outputs": [],
			"stateMutability": "nonpayable",
			"type": "function"
		},
		{
			"inputs": [],
			"name": "paused",
			"outputs": [
				{
					"internalType": "bool",
					"name": "",
					"type": "bool"
				}
			],
			"stateMutability": "view",
			"type": "function"
		},
		{
			"inputs": [
				{
					"internalType": "address",
					"name": "_contractAddr",
					"type": "address"
				},
				{
					"internalType": "address",
					"name": "_sender",
					"type": "address"
				},
				{
					"internalType": "uint256",
					"name": "_tokenId",
					"type": "uint256"
				}
			],
			"name": "remint",
			"outputs": [],
			"stateMutability": "nonpayable",
			"type": "function"
		},
		{
			"inputs": [],
			"name": "renounceOwnership",
			"outputs": [],
			"stateMutability": "nonpayable",
			"type": "function"
		},
		{
			"inputs": [
				{
					"internalType": "address",
					"name": "to",
					"type": "address"
				},
				{
					"internalType": "string",
					"name": "uri",
					"type": "string"
				}
			],
			"name": "safeMint",
			"outputs": [],
			"stateMutability": "nonpayable",
			"type": "function"
		},
		{
			"inputs": [
				{
					"internalType": "address",
					"name": "from",
					"type": "address"
				},
				{
					"internalType": "address",
					"name": "to",
					"type": "address"
				},
				{
					"internalType": "uint256",
					"name": "tokenId",
					"type": "uint256"
				}
			],
			"name": "safeTransferFrom",
			"outputs": [],
			"stateMutability": "nonpayable",
			"type": "function"
		},
		{
			"inputs": [
				{
					"internalType": "address",
					"name": "from",
					"type": "address"
				},
				{
					"internalType": "address",
					"name": "to",
					"type": "address"
				},
				{
					"internalType": "uint256",
					"name": "tokenId",
					"type": "uint256"
				},
				{
					"internalType": "bytes",
					"name": "_data",
					"type": "bytes"
				}
			],
			"name": "safeTransferFrom",
			"outputs": [],
			"stateMutability": "nonpayable",
			"type": "function"
		},
		{
			"inputs": [
				{
					"internalType": "address",
					"name": "operator",
					"type": "address"
				},
				{
					"internalType": "bool",
					"name": "approved",
					"type": "bool"
				}
			],
			"name": "setApprovalForAll",
			"outputs": [],
			"stateMutability": "nonpayable",
			"type": "function"
		},
		{
			"inputs": [
				{
					"internalType": "bytes4",
					"name": "interfaceId",
					"type": "bytes4"
				}
			],
			"name": "supportsInterface",
			"outputs": [
				{
					"internalType": "bool",
					"name": "",
					"type": "bool"
				}
			],
			"stateMutability": "view",
			"type": "function"
		},
		{
			"inputs": [],
			"name": "symbol",
			"outputs": [
				{
					"internalType": "string",
					"name": "",
					"type": "string"
				}
			],
			"stateMutability": "view",
			"type": "function"
		},
		{
			"inputs": [
				{
					"internalType": "uint256",
					"name": "tokenId",
					"type": "uint256"
				}
			],
			"name": "tokenURI",
			"outputs": [
				{
					"internalType": "string",
					"name": "",
					"type": "string"
				}
			],
			"stateMutability": "view",
			"type": "function"
		},
		{
			"inputs": [
				{
					"internalType": "address",
					"name": "from",
					"type": "address"
				},
				{
					"internalType": "address",
					"name": "to",
					"type": "address"
				},
				{
					"internalType": "uint256",
					"name": "tokenId",
					"type": "uint256"
				}
			],
			"name": "transferFrom",
			"outputs": [],
			"stateMutability": "nonpayable",
			"type": "function"
		},
		{
			"inputs": [
				{
					"internalType": "address",
					"name": "newOwner",
					"type": "address"
				}
			],
			"name": "transferOwnership",
			"outputs": [],
			"stateMutability": "nonpayable",
			"type": "function"
		},
		{
			"inputs": [],
			"name": "unpause",
			"outputs": [],
			"stateMutability": "nonpayable",
			"type": "function"
		}
	],
	"bytecode": "0x6080604052600980546001600160a01b03191661dead1790553480156200002557600080fd5b50604080518082018252600c81526b1219595c98511a59da5d185b60a21b602080830191825283518085019094526002845261121160f21b908401528151919291620000749160009162000102565b5080516200008a90600190602084019062000102565b50506007805460ff1916905550620000a233620000a8565b620001e5565b600780546001600160a01b03838116610100818102610100600160a81b031985161790945560405193909204169182907f8be0079c531659141344cd1fd0a4f28419497f9722a3daafe3b4186f6b6457e090600090a35050565b8280546200011090620001a8565b90600052602060002090601f0160209004810192826200013457600085556200017f565b82601f106200014f57805160ff19168380011785556200017f565b828001600101855582156200017f579182015b828111156200017f57825182559160200191906001019062000162565b506200018d92915062000191565b5090565b5b808211156200018d576000815560010162000192565b600281046001821680620001bd57607f821691505b60208210811415620001df57634e487b7160e01b600052602260045260246000fd5b50919050565b611db380620001f56000396000f3fe608060405234801561001057600080fd5b506004361061011d5760003560e01c806301ffc9a714610122578063062287491461014a57806306fdde031461016a578063081812fc1461017f578063095ea7b31461019257806323b872dd146101a75780633f4ba83a146101ba57806342842e0e146101c257806342966c68146101d55780635c975abb146101e85780636352211e146101f357806370a0823114610206578063715018a6146102275780638456cb591461022f578063851686bd146102375780638da5cb5b1461024a57806395d89b4114610252578063a22cb4651461025a578063b88d4fde1461026d578063c87b56dd14610280578063d204c45e14610293578063e985e9c5146102a6578063f2fde38b146102b9575b600080fd5b6101356101303660046119ff565b6102cc565b60405190151581526020015b60405180910390f35b60095461015d906001600160a01b031681565b6040516101419190611ac6565b610172610320565b6040516101419190611b17565b61015d61018d366004611a37565b6103b2565b6101a56101a03660046119d6565b61043f565b005b6101a56101b536600461188b565b610550565b6101a5610582565b6101a56101d036600461188b565b6105bb565b6101a56101e3366004611a37565b6105d6565b60075460ff16610135565b61015d610201366004611a37565b610650565b61021961021436600461183f565b6106c7565b604051908152602001610141565b6101a561074e565b6101a5610787565b6101a561024536600461188b565b6107be565b61015d610874565b610172610888565b6101a561026836600461193e565b610897565b6101a561027b3660046118c6565b6108a6565b61017261028e366004611a37565b6108de565b6101a56102a1366004611978565b6108e9565b6101356102b4366004611859565b610976565b6101a56102c736600461183f565b6109a4565b60006001600160e01b031982166380ac58cd60e01b14806102fd57506001600160e01b03198216635b5e139f60e01b145b8061031857506301ffc9a760e01b6001600160e01b03198316145b90505b919050565b60606000805461032f90611c9b565b80601f016020809104026020016040519081016040528092919081815260200182805461035b90611c9b565b80156103a85780601f1061037d576101008083540402835291602001916103a8565b820191906000526020600020905b81548152906001019060200180831161038b57829003601f168201915b5050505050905090565b60006103bd82610a41565b6104235760405162461bcd60e51b815260206004820152602c60248201527f4552433732313a20617070726f76656420717565727920666f72206e6f6e657860448201526b34b9ba32b73a103a37b5b2b760a11b60648201526084015b60405180910390fd5b506000908152600460205260409020546001600160a01b031690565b600061044a82610650565b9050806001600160a01b0316836001600160a01b031614156104b85760405162461bcd60e51b815260206004820152602160248201527f4552433732313a20617070726f76616c20746f2063757272656e74206f776e656044820152603960f91b606482015260840161041a565b336001600160a01b03821614806104d457506104d481336102b4565b6105415760405162461bcd60e51b815260206004820152603860248201527f4552433732313a20617070726f76652063616c6c6572206973206e6f74206f776044820152771b995c881b9bdc88185c1c1c9bdd995908199bdc88185b1b60421b606482015260840161041a565b61054b8383610a5e565b505050565b61055b335b82610acc565b6105775760405162461bcd60e51b815260040161041a90611bdb565b61054b838383610b96565b3361058b610874565b6001600160a01b0316146105b15760405162461bcd60e51b815260040161041a90611ba6565b6105b9610d2b565b565b61054b838383604051806020016040528060008152506108a6565b6105df33610555565b6106445760405162461bcd60e51b815260206004820152603060248201527f4552433732314275726e61626c653a2063616c6c6572206973206e6f74206f7760448201526f1b995c881b9bdc88185c1c1c9bdd995960821b606482015260840161041a565b61064d81610db8565b50565b6000818152600260205260408120546001600160a01b0316806103185760405162461bcd60e51b815260206004820152602960248201527f4552433732313a206f776e657220717565727920666f72206e6f6e657869737460448201526832b73a103a37b5b2b760b91b606482015260840161041a565b60006001600160a01b0382166107325760405162461bcd60e51b815260206004820152602a60248201527f4552433732313a2062616c616e636520717565727920666f7220746865207a65604482015269726f206164647265737360b01b606482015260840161041a565b506001600160a01b031660009081526003602052604090205490565b33610757610874565b6001600160a01b03161461077d5760405162461bcd60e51b815260040161041a90611ba6565b6105b96000610dc1565b33610790610874565b6001600160a01b0316146107b65760405162461bcd60e51b815260040161041a90611ba6565b6105b9610e1b565b6009546040516323b872dd60e01b81526001600160a01b03848116600483015291821660248201526044810183905284918216906323b872dd90606401600060405180830381600087803b15801561081557600080fd5b505af1158015610829573d6000803e3d6000fd5b5050505081836001600160a01b0316856001600160a01b03167f89db4441c5090cf5d5da408c095c3a568267615610109d3dbdcc60892136a6c660405160405180910390a450505050565b60075461010090046001600160a01b031690565b60606001805461032f90611c9b565b6108a2338383610e73565b5050565b6108b03383610acc565b6108cc5760405162461bcd60e51b815260040161041a90611bdb565b6108d884848484610f36565b50505050565b606061031882610f69565b60006108f460085490565b9050610904600880546001019055565b61090e83826110cc565b61091881836110e6565b816040516109269190611a7b565b6040518091039020836001600160a01b03167f4de1b91fd23ecb6111d0ffe4fad10173e98a13f37c9529dc84c77a686cc2cdb88360405161096991815260200190565b60405180910390a3505050565b6001600160a01b03918216600090815260056020908152604080832093909416825291909152205460ff1690565b336109ad610874565b6001600160a01b0316146109d35760405162461bcd60e51b815260040161041a90611ba6565b6001600160a01b038116610a385760405162461bcd60e51b815260206004820152602660248201527f4f776e61626c653a206e6577206f776e657220697320746865207a65726f206160448201526564647265737360d01b606482015260840161041a565b61064d81610dc1565b6000908152600260205260409020546001600160a01b0316151590565b600081815260046020526040902080546001600160a01b0319166001600160a01b0384169081179091558190610a9382610650565b6001600160a01b03167f8c5be1e5ebec7d5bd14f71427d1e84f3dd0314c0f7b2291e5b200ac8c7c3b92560405160405180910390a45050565b6000610ad782610a41565b610b385760405162461bcd60e51b815260206004820152602c60248201527f4552433732313a206f70657261746f7220717565727920666f72206e6f6e657860448201526b34b9ba32b73a103a37b5b2b760a11b606482015260840161041a565b6000610b4383610650565b9050806001600160a01b0316846001600160a01b03161480610b7e5750836001600160a01b0316610b73846103b2565b6001600160a01b0316145b80610b8e5750610b8e8185610976565b949350505050565b826001600160a01b0316610ba982610650565b6001600160a01b031614610c0d5760405162461bcd60e51b815260206004820152602560248201527f4552433732313a207472616e736665722066726f6d20696e636f72726563742060448201526437bbb732b960d91b606482015260840161041a565b6001600160a01b038216610c6f5760405162461bcd60e51b8152602060048201526024808201527f4552433732313a207472616e7366657220746f20746865207a65726f206164646044820152637265737360e01b606482015260840161041a565b610c7a838383611171565b610c85600082610a5e565b6001600160a01b0383166000908152600360205260408120805460019290610cae908490611c58565b90915550506001600160a01b0382166000908152600360205260408120805460019290610cdc908490611c2c565b909155505060008181526002602052604080822080546001600160a01b0319166001600160a01b038681169182179092559151849391871691600080516020611d5e83398151915291a461054b565b60075460ff16610d745760405162461bcd60e51b815260206004820152601460248201527314185d5cd8589b194e881b9bdd081c185d5cd95960621b604482015260640161041a565b6007805460ff191690557f5db9ee0a495bf2e6ff9c91a7834c1ba4fdd244a5e8aa4e537bd38aeae4b073aa335b604051610dae9190611ac6565b60405180910390a1565b61064d81611199565b600780546001600160a01b03838116610100818102610100600160a81b031985161790945560405193909204169182907f8be0079c531659141344cd1fd0a4f28419497f9722a3daafe3b4186f6b6457e090600090a35050565b60075460ff1615610e3e5760405162461bcd60e51b815260040161041a90611b7c565b6007805460ff191660011790557f62e78cea01bee320cd4e420270b5ea74000d11b0c9f74754ebdbfc544b05a258610da13390565b816001600160a01b0316836001600160a01b03161415610ed15760405162461bcd60e51b815260206004820152601960248201527822a9219b99189d1030b8383937bb32903a379031b0b63632b960391b604482015260640161041a565b6001600160a01b03838116600081815260056020908152604080832094871680845294825291829020805460ff191686151590811790915591519182527f17307eab39ab6107e8899845ad3d59bd9653f200f220920489ca2b5937696c319101610969565b610f41848484610b96565b610f4d848484846111d9565b6108d85760405162461bcd60e51b815260040161041a90611b2a565b6060610f7482610a41565b610fda5760405162461bcd60e51b815260206004820152603160248201527f45524337323155524953746f726167653a2055524920717565727920666f72206044820152703737b732bc34b9ba32b73a103a37b5b2b760791b606482015260840161041a565b60008281526006602052604081208054610ff390611c9b565b80601f016020809104026020016040519081016040528092919081815260200182805461101f90611c9b565b801561106c5780601f106110415761010080835404028352916020019161106c565b820191906000526020600020905b81548152906001019060200180831161104f57829003601f168201915b50505050509050600061107d6112e6565b90508051600014156110915750905061031b565b8151156110c35780826040516020016110ab929190611a97565b6040516020818303038152906040529250505061031b565b610b8e84611307565b6108a28282604051806020016040528060008152506113d2565b6110ef82610a41565b6111525760405162461bcd60e51b815260206004820152602e60248201527f45524337323155524953746f726167653a2055524920736574206f66206e6f6e60448201526d32bc34b9ba32b73a103a37b5b2b760911b606482015260840161041a565b6000828152600660209081526040909120825161054b928401906116e2565b60075460ff16156111945760405162461bcd60e51b815260040161041a90611b7c565b61054b565b6111a281611405565b600081815260066020526040902080546111bb90611c9b565b15905061064d57600081815260066020526040812061064d91611766565b60006001600160a01b0384163b156112db57604051630a85bd0160e11b81526001600160a01b0385169063150b7a029061121d903390899088908890600401611ada565b602060405180830381600087803b15801561123757600080fd5b505af1925050508015611267575060408051601f3d908101601f1916820190925261126491810190611a1b565b60015b6112c1573d808015611295576040519150601f19603f3d011682016040523d82523d6000602084013e61129a565b606091505b5080516112b95760405162461bcd60e51b815260040161041a90611b2a565b805181602001fd5b6001600160e01b031916630a85bd0160e11b149050610b8e565b506001949350505050565b604080518082019091526007815266697066733a2f2f60c81b602082015290565b606061131282610a41565b6113765760405162461bcd60e51b815260206004820152602f60248201527f4552433732314d657461646174613a2055524920717565727920666f72206e6f60448201526e3732bc34b9ba32b73a103a37b5b2b760891b606482015260840161041a565b60006113806112e6565b905060008151116113a057604051806020016040528060008152506113cb565b806113aa8461149b565b6040516020016113bb929190611a97565b6040516020818303038152906040525b9392505050565b6113dc83836115b5565b6113e960008484846111d9565b61054b5760405162461bcd60e51b815260040161041a90611b2a565b600061141082610650565b905061141e81600084611171565b611429600083610a5e565b6001600160a01b0381166000908152600360205260408120805460019290611452908490611c58565b909155505060008281526002602052604080822080546001600160a01b0319169055518391906001600160a01b03841690600080516020611d5e833981519152908390a46108a2565b6060816114c057506040805180820190915260018152600360fc1b602082015261031b565b8160005b81156114ea57806114d481611cd6565b91506114e39050600a83611c44565b91506114c4565b6000816001600160401b0381111561151257634e487b7160e01b600052604160045260246000fd5b6040519080825280601f01601f19166020018201604052801561153c576020820181803683370190505b5090505b8415610b8e57611551600183611c58565b915061155e600a86611cf1565b611569906030611c2c565b60f81b81838151811061158c57634e487b7160e01b600052603260045260246000fd5b60200101906001600160f81b031916908160001a9053506115ae600a86611c44565b9450611540565b6001600160a01b03821661160b5760405162461bcd60e51b815260206004820181905260248201527f4552433732313a206d696e7420746f20746865207a65726f2061646472657373604482015260640161041a565b61161481610a41565b156116605760405162461bcd60e51b815260206004820152601c60248201527b115490cdcc8c4e881d1bdad95b88185b1c9958591e481b5a5b9d195960221b604482015260640161041a565b61166c60008383611171565b6001600160a01b0382166000908152600360205260408120805460019290611695908490611c2c565b909155505060008181526002602052604080822080546001600160a01b0319166001600160a01b0386169081179091559051839290600080516020611d5e833981519152908290a46108a2565b8280546116ee90611c9b565b90600052602060002090601f0160209004810192826117105760008555611756565b82601f1061172957805160ff1916838001178555611756565b82800160010185558215611756579182015b8281111561175657825182559160200191906001019061173b565b5061176292915061179e565b5090565b50805461177290611c9b565b6000825580601f10611784575061064d565b601f01602090049060005260206000209081019061064d91905b5b80821115611762576000815560010161179f565b60006001600160401b03808411156117cd576117cd611d31565b604051601f8501601f19908116603f011681019082821181831017156117f5576117f5611d31565b8160405280935085815286868601111561180e57600080fd5b858560208301376000602087830101525050509392505050565b80356001600160a01b038116811461031b57600080fd5b600060208284031215611850578081fd5b6113cb82611828565b6000806040838503121561186b578081fd5b61187483611828565b915061188260208401611828565b90509250929050565b60008060006060848603121561189f578081fd5b6118a884611828565b92506118b660208501611828565b9150604084013590509250925092565b600080600080608085870312156118db578081fd5b6118e485611828565b93506118f260208601611828565b92506040850135915060608501356001600160401b03811115611913578182fd5b8501601f81018713611923578182fd5b611932878235602084016117b3565b91505092959194509250565b60008060408385031215611950578182fd5b61195983611828565b91506020830135801515811461196d578182fd5b809150509250929050565b6000806040838503121561198a578182fd5b61199383611828565b915060208301356001600160401b038111156119ad578182fd5b8301601f810185136119bd578182fd5b6119cc858235602084016117b3565b9150509250929050565b600080604083850312156119e8578182fd5b6119f183611828565b946020939093013593505050565b600060208284031215611a10578081fd5b81356113cb81611d47565b600060208284031215611a2c578081fd5b81516113cb81611d47565b600060208284031215611a48578081fd5b5035919050565b60008151808452611a67816020860160208601611c6f565b601f01601f19169290920160200192915050565b60008251611a8d818460208701611c6f565b9190910192915050565b60008351611aa9818460208801611c6f565b835190830190611abd818360208801611c6f565b01949350505050565b6001600160a01b0391909116815260200190565b6001600160a01b0385811682528416602082015260408101839052608060608201819052600090611b0d90830184611a4f565b9695505050505050565b6000602082526113cb6020830184611a4f565b60208082526032908201527f4552433732313a207472616e7366657220746f206e6f6e20455243373231526560408201527131b2b4bb32b91034b6b83632b6b2b73a32b960711b606082015260800190565b60208082526010908201526f14185d5cd8589b194e881c185d5cd95960821b604082015260600190565b6020808252818101527f4f776e61626c653a2063616c6c6572206973206e6f7420746865206f776e6572604082015260600190565b60208082526031908201527f4552433732313a207472616e736665722063616c6c6572206973206e6f74206f6040820152701ddb995c881b9bdc88185c1c1c9bdd9959607a1b606082015260800190565b60008219821115611c3f57611c3f611d05565b500190565b600082611c5357611c53611d1b565b500490565b600082821015611c6a57611c6a611d05565b500390565b60005b83811015611c8a578181015183820152602001611c72565b838111156108d85750506000910152565b600281046001821680611caf57607f821691505b60208210811415611cd057634e487b7160e01b600052602260045260246000fd5b50919050565b6000600019821415611cea57611cea611d05565b5060010190565b600082611d0057611d00611d1b565b500690565b634e487b7160e01b600052601160045260246000fd5b634e487b7160e01b600052601260045260246000fd5b634e487b7160e01b600052604160045260246000fd5b6001600160e01b03198116811461064d57600080fdfeddf252ad1be2c89b69c2b068fc378daa952ba7f163c4a11628f55a4df523b3efa264697066735822122046de7da02bdf5117ceed7128961ae8eb3350a2e77a08498f1bfb9bfcb5874eba64736f6c63430008020033",
	"linkReferences": {},
	"deployedLinkReferences": {}
}